S01000004D474D32315F7663732E733337F5
S214000000001000206562000061620000616200006E
S21400001061620000616200006162000061620000CF
S21400002061620000616200006162000061620000BF
S21400003061620000616200006162000061620000AF
S214000040616200006162000061620000616200009F
S214000050616200006162000061620000616200008F
S2140000606162000061620000F1A8000061620000A9
S21400007061620000B1070000BD0700006162000079
S214000080616200006162000061620000616200005F
S21400009061620000F96400006162000061620000B5
S2140000A061620000C16500009965000061620000A1
S2140000B0616200006162000061620000C9320500F2
S2140000C06932050065320500C9290500C5320500FC
S2140000D06D3205008D32050071320500ED0E05000B
S2140000E00533050061620000616200006162000085
S2140000F061620000559300006162000061620000CA
S21400010061620000616200006162000061620000DE
S21400011061620000616200006162000061620000CE
S21400012061620000616200006162000061620000BE
S2140001306162000010B5054C237833B9044B13B147
S214000140044800E000BF0123237010BDC017002044
S2140001500000000004DF050008B5034B1BB103498F
S214000160034800E000BF08BD00000000C4170020E0
S21400017004DF0500154B002B08BF134B9D46A3F567
S214000180803A00218B460F461348144A121A54F040
S214000190C8F80F4B002B00D098470E4B002B00D012
S2140001A098470020002104000D000D48002802D0CA
S2140001B00C4800E000BF54F029F82000290000F0A9
S2140001C02BF954F00FF800BF0000080000100020C4
S2140001D00000000000000000C017002000440020BF
S2140001E00000000000000000024B0349186809F0F8
S2140001F003B900BFB81F0020F85F05007047000075
S21400020008B5034B0349186809F0F6F8012008BD45
S214000210B81F00201460050070B50368464A23F432
S2140002207F4323F0070393428EB005460DD005D8D2
S214000230A2F5A022934224D00EB070BD3F4A93424E
S21400024003D002F180729342F6D13D4C3D492068BE
S21400025009F0D2F82B68384A23F47F4323F00703CB
S214000260934260D002F180729342E5D1364A137809
S214000270002BE1D0013BDBB21370002BDCD13349FD
S21400028056E02F4C3249206809F0B6F8FFF7B8FF61
S21400029026460028D0D00DF10F0104A826F02CFC2D
S2140002A0054688B12B4A2C49206809F0A5F82B4949
S2140002B02A46206809F0A0F8284605F0B1FF28492C
S2140002C0206809F099F8FEE79DF810209DF8113097
S2140002D000921421234A06A854F0FAF806AA2249E6
S2140002E0206809F089F806A854F030F906AB0246F3
S2140002F029460B2026F07CFB024618B11B492068D5
S21400030009F07AF82AF03AF90446002894D0034611
S214000310174A1E2106A854F0DBF822461549306815
S21400032009F06AF888E7084A13491378013313700E
S214000330206809F061F87FE7A0000600A00006012B
S214000340B81F002027610500DC170020516105005A
S2140003502E60050042600500466005004A60050004
S2140003605E60050091600500A6600500BA600500A5
S214000370F4600500086105004561050038B50546CE
S214000380134C1449206809F037F82B68124A23F4F6
S2140003907F4323F00703934218D12B79B3B9032088
S2140003A02AF006F9054688B10C4A0D49206809F07E
S2140003B023F80C492A46206809F01EF8284605F05E
S2140003C02FFF0949206809F017F8FEE738BD00BF7F
S2140003D0B81F002060610500A800140042600500F8
S2140003E0466005004A60050071610500024B024642
S2140003F00249186809F000B8B81F0020EC61050033
S214000400024603480B460068024908F0F5BF00BFE5
S214000410B81F0020AC61050008B50AF08DFAFFF79A
S214000420E3FE0AF096FAFFF7E9FE09F0B3FCF8E7F8
S21400043008B5064A064893780133537011F0A2FBBC
S214000440BDE80840034811F0CFBB00BF44100020B1
S21400045014100020CC64050010B5044628F0A6FB56
S2140004602046FFF7D9FE10BD0120704700B5C3B087
S21400047011F0E2FC11F00BFD48B1FFF7F5FF30B1CB
S21400048001A826F017FA10B901A8FFF7E5FF43B058
S2140004905DF804FB08B5034828F03AFFBDE80840BD
S2140004A002F0B4BBF464050010B5044602F058F838
S2140004B0204605F053FB204602F0ACFB204605F034
S2140004C02BFB204601F0F4FE204603F0C7FA204638
S2140004D002F0CEFA204602F06DFB204605F0E4FB63
S2140004E0204605F007FC204605F006FD2046FFF7EF
S2140004F045FF10BD0120704700B5C3B028F010FFBF
S21400050048B1FFF7F7FF30B101A829F0D0FD10B9C8
S21400051001A8FFF7C9FF43B05DF804FB30B50A4CED
S2140005200A4B22680A4D1A600A4B85B02B600A4BAC
S214000530019308F01DFF2B68029001A92068039321
S21400054007F068FC05B030BD64100020B03F002006
S214000550AC3F002058100020DC660500014B1868F0
S21400056007F06ABC6410002038B508F001FF0546A5
S214000570064C2368D3F8AC0208F0EEFE206807F0BD
S2140005806BFC2846BDE8384008F0E6BE6410002044
S21400059008B50421002006F077FC0821072006F0A5
S2140005A073FC0821084606F06FFC08211C2006F0A4
S2140005B06BFC0821242006F067FC0821252006F0A5
S2140005C063FC002008BD000007B501A807F046F947
S2140005D0264B9B6DDB0318D4254A136823F4FF03D0
S2140005E023F4FE4343F4BC1343F4A063136052F8B1
S2140005F0043C23F4704343F4404342F8043C52F86E
S214000600043C43F4E06342F8043C9DF80530012BBB
S2140006100FD19DF8043063B94FF000531B68154B9B
S2140006201B68154B1B68154B1B68154B1B68154B39
S2140006301B68154AD2F8803043F00303C2F88030B6
S21400064008F076FC08F03EFC08F090FC08F042FC4F
S214000650FFF79EFF08F024FC05F0C6FF09F070FDCA
S21400066009F0ECFA03B05DF804FB00BF00C00040E0
S21400067034C00040004000200080002000C0002061
S214000680000001200040012000800040704708B5AF
S21400069009F01CFE08F06CFC00F07CF80FF088F8FF
S2140006A0BDE80840FFF73ABF08B507F05DFB07F066
S2140006B067FBFFF7BDFEBDE80840FFF7EBBE05F0A1
S2140006C0A5BD704708B505F069FDBDE80840FFF711
S2140006D04BBF08B5FFF7CAFEBDE80840FFF70CBFE2
S2140006E07047000030B5174C93B00BAD0FCC0FC55C
S2140006F094E807000023CDE904330693124B85E8FF
S2140007000700039322238DF8103004238DF812304F
S214000710012307AD0C348DF8193094E80F0085E8F6
S2140007200F000A4B0BAA0093294603AB084809F0B2
S214000730AFF8044618B17A21064805F0EEFF2046C9
S21400074013B030BDF466050000C00540B01A0020A6
S214000750101B002020670500831E012B0AD80129E4
S21400076008D8042211460A4B1B68C3F30013002066
S21400077006F042BF0239012908D8012806D8044BE2
S21400078000221B680421C3F30013F0E7704700BF84
S21400079010C0034008B50449044809F0D9FABDE87A
S2140007A00840FFF79FBF00BF68100020E81A00202F
S2140007B0014B186809F028B9101B0020FFF7F8BF96
S2140007C0014808F05DBF00BF101B002001207047E5
S2140007D00120704710B511F09BFB0446FFF7BEFEE4
S2140007E0002808BF002405F009FD002808BF0024E3
S2140007F0FFF7ECFF002814BF2046002010BD38B5D8
S21400080009F0BCFF044611F091FB04281ED0022814
S2140008104FF0000508BF0124FFF7D2FF042817D0C9
S214000820022808BF012405F0DFFC042812D00228A5
S21400083008BF0124FFF7CCFF04280DD0022808BF0C
S2140008400124002D18BF0024204638BD0125E3E70B
S2140008500125E8E70125EDE70024F5E7064A00F55F
S2140008600040D3881289D21A50434FF6FF72B0FB6D
S214000870F2F0184480B27047801C0020002337B581
S2140008800E4A009341F288310D4805F041FC0546BA
S21400089090B10C4C0C4A0D49206808F0ADFD0C498F
S2140008A02A46206808F0A8FD284605F0B9FC094944
S2140008B0206808F0A1FDFEE703B030BDFD0900008A
S2140008C0FC1B0020B81F00204260050046600500A3
S2140008D04A6005000572050070B51546134CAB88D6
S2140008E02288134E9A42306816D0124908F084FDCA
S2140008F0AB882380FFF7C2FFB4F90A20B5F90630AB
S21400090030689A420CD00C4908F076FDEB8863817B
S214000910BDE87040FFF7B2BF084908F06DFDEBE791
S2140009200749BDE8704008F067BD00BF801C002086
S214000930B81F0020B06E0500066F0500DA6E0500D1
S214000940276F05002DE9F341214C089F21492068B7
S21400095016469846204D08F04FFD77B9B3886B824F
S214000960B5F91220B5F910302068934208D11B491A
S21400097002B0BDE8F04108F03FBDB8F80430EEE73D
S2140009803B46174908F038FD37B9B3882B8202B0CA
S214000990BDE8F041FFF772BF0023124A00933946C4
S2140009A0114805F0B5FB05460028F0D00F4A10495F
S2140009B0206808F021FD0F492A46206808F01CFD33
S2140009C0284605F02DFC0C49206808F015FDFEE7CA
S2140009D0B81F00206E730500801C00208F73050072
S2140009E0BB730500250F0000D41B002042600500E5
S2140009F0466005004A600500F173050038B50E4AEA
S214000A00142144F2050025F05BFF054698B10B4C17
S214000A100B4A0C49206808F0EFFC2A460A49206871
S214000A2008F0EAFC284605F0FBFB20680749BDE80D
S214000A30384008F0E1BC38BD801C0020B81F0020FC
S214000A40316E0500466005004A600500356E0500FB
S214000A502DE9F341089C064600940F4690460AF09E
S214000A60A0F80446B0B10D4D0D4A0E49286808F0AE
S214000A70C3FC22460C49286808F0BEFC204605F058
S214000A80CFFB98F800303246009308493B4628686A
S214000A9008F0B2FC204602B0BDE8F081B81F002086
S214000AA0316E0500466005004A600500C27105000B
S214000AB02DE9F34106460F4690460AF08EF840F2BE
S214000AC014539842044608D040F21553984204D076
S214000AD0D0B9204602B0BDE8F0810D4D0D4A0E4952
S214000AE0286808F089FC22460C49286808F084FC2F
S214000AF0204605F095FBCDF800803B463246084977
S214000B00286808F079FCE4E7014D064AE7E700BFED
S214000B10B81F0020E0700500466005004A6005002A
S214000B20E4700500316E050038B51A4805F0D6FAAF
S214000B30054690B1184C194A1949206808F05CFC23
S214000B4018492A46206808F057FC284605F068FB36
S214000B501549206808F050FCFEE7144805F0BEFA78
S214000B60044690B10C4D0D4A0D49286808F044FC27
S214000B700C492246286808F03FFC204605F050FB4A
S214000B800B49286808F038FCFEE70A4B18800A4B29
S214000B90186038BD841B0020B81F00204260050086
S214000BA0466005004A600500FD720500AC1B00208B
S214000BB037730500941C0020981C002038B5154695
S214000BC00C4CB5F90430B4F910200B499A42086869
S214000BD00AD00A4908F010FCAB882382FFF74EFEC5
S214000BE0BDE83840FFF7A0BF0549BDE8384008F02B
S214000BF003BC00BF801C0020B81F002078720500D0
S214000C00A07205002DE97343044653F0DFFA244E24
S214000C100546B6F9000053F0D9FA8542214B224D1D
S214000C202EDA1B68B6F90020A3FB04014FEAE4792C
S214000C3003FB0911D31753F0EFF8B5F90A10044671
S214000C400246688801F002FC0023184A00932146F9
S214000C50174805F05DFA0546F0B1164C164A1749D6
S214000C60206808F0C9FB16492A46206808F0C4FB2D
S214000C70284605F0D5FA1349206808F0BDFBFEE7C4
S214000C801C68B5F910003388184400B2FFF7E6FD7B
S214000C902246B5F90A10D5E702B0BDE8708300BF5A
S214000CA0941C0020981C0020801C00205D0F000073
S214000CB0AC1B0020B81F00204260050046600500FF
S214000CC04A600500CA72050038B529F007FB0546DC
S214000CD090B10A4C0A4A0B49206808F08DFB0A4975
S214000CE02A46206808F088FB284605F099FA074946
S214000CF0206808F081FBFEE738BD00BFB81F002063
S214000D0042600500466005004A6005003A7205002C
S214000D1010B5872986B004468DF808100BD08829B0
S214000D201BD0002302AA0093214641F20330FFF7AE
S214000D308FFE06B010BD04F077FD0F4BADF80C002B
S214000D401A79597942EA0122ADF80E209A7BDB7BAC
S214000D5042EA0323ADF81030E3E7074B9A79D979D6
S214000D6042EA0122ADF80C201A7A5B7A42EA0323A3
S214000D70ADF80E30D5E700BF801C0020137870B5A4
S214000D80872B144602D0882B42D070BD04F04CFD51
S214000D90A3882F4E8342356829D004F045FDA388EA
S214000DA002462C49284608F027FBA08804F042FD9E
S214000DB0FFF764FD284DE388AA8830689A421ED063
S214000DC0264908F019FBE388AB80FFF757FDB5F915
S214000DD00E20B4F9083030689A4214D0204908F042
S214000DE00BFB2389EB81BDE87040FFF747BD04F09D
S214000DF01BFD1C490246284608F0FEFADAE71A49A7
S214000E0008F0FAFAE3E71949BDE8704008F0F4BACA
S214000E10114DA388EA880E4E9A42306811D01449C4
S214000E2008F0EAFAA388EB80FFF728FD2A89E38812
S214000E3030689A4209D00F4908F0DEFAE3882B8121
S214000E40D1E70D4908F0D8FAF0E70C49DCE700BF17
S214000E50B81F0020CD6A0500801C0020236B05000B
S214000E60896B0500F76A0500556B0500B26B050037
S214000E70DD6B05003B6C05000B6C0500696C05001E
S214000E80F7B5089C064600940F4609F0CBFD0546CC
S214000E90A0B10B4C0B4A0C49206808F0ADFA2A4664
S214000EA00A49206808F0A8FA284605F0B9F93B4632
S214000EB032460749206808F09FFAFEE703B0F0BD07
S214000EC0B81F002042600500466005004A60050025
S214000ED02871050030B5022405468BB0104B8DF8FE
S214000EE00840587C1A7C8DF8184042EA0022ADF87B
S214000EF00C209A7CDB7C41F2020042EA0323ADF828
S214000F001C30009106AB02AA2946FFF7A1FD28B9BE
S214000F102246294641F20200FFF7CAFD0BB030BD5B
S214000F20801C002008B50A4BB3F9122059881A8293
S214000F301980084B0849186812B208F05DFAFFF7E6
S214000F409DFCBDE8084000210120FFF7C3BF00BF9D
S214000F50801C0020B81F00209C6A050073B520493D
S214000F60204D0968204C0191B5F900101F480091EA
S214000F70B4F910201E49B4F91230006808F03CFAA3
S214000F80B4F91030B4F91200C01A53F01FF906462F
S214000F90B5F9000053F01AF9864215DAB4F91230A2
S214000FA0238263882380FFF769FC12490120FFF73C
S214000FB091FFB4F91200B4F91030C01A0ED002B086
S214000FC0BDE87040FFF71EBEB4F910002B88184429
S214000FD000B22082FFF742FC2080E4E702B070BD3A
S214000FE0981C0020941C0020801C0020B81F0020A5
S214000FF0616A0500005A620270B514461278204EE7
S214001000852A05D01F493068BDE8704008F0F4B95D
S21400101004F0F2FBA388024698421B4D25D02A888E
S2140010201A49306808F0E8F9A08804F0EBFBFFF7EF
S21400103025FC2A88E38830689A421BD0144908F0B9
S214001040DBF9E3882B80FFF719FCB5F90A20B4F921
S214001050083030689A4211D00E4908F0CDF923893D
S2140010606B81BDE87040FFF709BC0B49306808F09B
S214001070C3F9DEE7094908F0BFF9E6E70849C3E720
S214001080B81F00204E670500801C0020646705001E
S214001090B06E0500066F050086670500DA6E05006F
S2140010A0276F05002DE9F043002485B003940E9CBD
S2140010B00C9E02940D9C8046CDE900648946174636
S2140010C009F048FD0446B0B10D4D0E4A0E49286899
S2140010D008F092F922460D49286808F08DF9204656
S2140010E005F09EF833783A46CDE900930849434622
S2140010F0286808F081F9204605B0BDE8F08300BFF7
S214001100B81F0020316E0500466005004A600500E5
S214001110777105002DE9F04389B0119C0E462378BF
S2140011201746862B03D0872B67D08A2122E0B4F996
S2140011300810DFF89491E388A2880091D9F800009F
S214001140584908F059F904F06FFBA388C846834253
S214001150554D2AD1AA88E3889A4226D1B5F90E20A1
S214001160B4F908309A4220D15049D9F8000008F066
S21400117043F987219DF850309B0740F18E808729E0
S2140011808DF8101069D0882979D00023CDE9013375
S21400119004AB00933A46BDF84030314641F2043085
S2140011A0FFF780FF09B0BDE8F08304F03DFBA2889E
S2140011B0904207D03E49D8F8000008F01DF9A088F4
S2140011C004F038FBE288AB88934206D03949D8F859
S2140011D0000008F011F9E388AB80B4F90820B5F9EF
S2140011E00E30934206D03449D8F8000008F004F9CF
S2140011F02389EB81FFF742FBBBE7DFF8CC80E3886F
S214001200A2882E49D8F8000008F0F6F8264BA288E7
S214001210D988C14691421D460AD11A89E3889A4266
S2140012200DD12249D8F8000008F0E6F88821A1E799
S2140012302349D8F8000008F0DFF8A388EB80E2889E
S2140012402B89934206D01F49D9F8000008F0D4F83D
S214001250E3882B81FFF712FBE8E704F0E5FA124B70
S214001260ADF814001A79597942EA0122ADF8162031
S2140012709A7BDB7B42EA0323ADF8183085E70A4BFE
S2140012809A79D97942EA0122ADF814201A7A5B7A63
S21400129042EA0323ADF8163077E73046FFF738FD0D
S2140012A080E700BF996C0500801C00208F73050046
S2140012B0096D05002D6D0500596D05007C6D050056
S2140012C0E16D0500096E0500B81F00202DE9F04FFE
S2140012D08FB0DDE919A89AF800900D46B9F1040F11
S2140012E01746BDF86C4000F0C580B9F1050F00F058
S2140012F02081B9F1020F40F01A81DFF81893BAF98D
S2140013000420B04E00944346AF49D9F8000008F0D8
S21400131073F8FFF709FCBAF90420B6F91030CB468B
S21400132093423AD1A949D9F8000008F065F8BAF80E
S214001330043073824444FFF7A1FA9DF870309B078F
S2140013401ED502219F4B8DF81810587C1A7C8DF8FC
S214001350281042EA0022ADF81C209A7CDB7C294645
S21400136042EA0323ADF82C300AAB019306AB009398
S2140013700294BDF860303A4641F20200FFF792FE52
S21400138021462846FFF7A6FD8622294641F206306A
S214001390FFF78EFB0FB0BDE8F08F8D49D9F800003F
S2140013A0059608F029F8BAF904100846FFF756FA29
S2140013B0059B0246B8F1000F0DD16CB931827182DF
S2140013C02246B6F90A103080708001F03FF82846B1
S2140013D0FFF77AFCAEE734B35A80022259827D4B7F
S2140013E021461A7000237C4A00937C4804F090FE45
S2140013F00646A0B17A4A7B49DBF8000007F0FCFFFE
S21400140079493246DBF8000007F0F6FF304604F074
S21400141007FF7649DBF8000007F0EEFFFEE7744BA7
S214001420C3F80080D3E771824246B6F90A1070808E
S21400143001F00CF86E49009423466E4A09686E481F
S21400144004F066FE06460028C1D0654A6549D9F80C
S214001450000007F0D1FF64493246D9F8000007F0D3
S214001460CBFF304604F0DCFE6449D9F8000007F0F4
S214001470C3FFFEE7DFF89C91BAF9042000944346C8
S2140014805F49D9F8000007F0B7FFBAF904605D4B72
S214001490002E1E805C4BC3F8008002DC03D05B4E3F
S2140014A001E047F6FF76DFF81C81D9F80000B8F9AE
S2140014B01030B34206D1454907F09EFF0024A8F835
S2140014C0126038E73246424907F096FF3046FFF78B
S2140014D0C5F9A8F81260A8F8020004B304223D4B30
S2140014E021461A7000233C4A00933C4804F010FE44
S2140014F00446C8B13A4A3B49D9F8000007F07CFFD9
S21400150039492246D9F8000007F076FF204604F055
S21400151087FE3649D9F8000007F06EFFFEE7B8F9F7
S2140015201000301AFFF76EFB2846FFF7CDFB384C4D
S21400153001E7384E3849306807F05EFF01F00AF8D8
S214001540DFF88080B8F80620B8F80830A8F8000061
S214001550A8F80200801AC0EB00409B1AB0FBF3F319
S214001560A3F50043A8F81030A8F81230FCB1194BC8
S214001570194A83F80090002321460093174804F088
S214001580C7FD804600283FF4D6AE154A1549306898
S21400159007F032FF14494246306807F02DFF4046F8
S2140015A004F03EFE1149306807F026FFFEE7FFF71D
S2140015B0BBFA2246B8F90A10B8F8000000F046FF59
S2140015C0B9E600BF801C00202F7405008F7305004D
S2140015D07174050070100020711F0000841B00202D
S2140015E042600500466005004A60050093740500E9
S2140015F07C1C0020250F0000D41B0020F173050082
S214001600CE740500941C0020981C00200080FFFF6C
S214001610005A6202B81F00200D75050070B58525BA
S2140016208AB006468DF8085004F0E6F8184CADF877
S2140016300C00627823788DF8185043EA0223ADF840
S2140016400E30E27AA37A43EA0223ADF8103004F0B3
S214001650DFF8E278A378ADF81C0043EA0223ADF881
S2140016601E30627B237B009643EA0223ADF82030CF
S21400167002AA06AB002141F20330FFF7E9F928B9C8
S21400168001462A4641F20330FFF712FA0AB070BD4F
S214001690801C002037B50F4C04F0BAF804F0B2F8FE
S2140016A063882380B4F90C3063810B4B1D6804F00B
S2140016B0A3F8B4F90A20238800920849024628466F
S2140016C007F09AFEFFF7DAF8002003B0BDE83040D6
S2140016D0FFF7A4BF801C0020B81F00208270050002
S2140016E02DE9F0412B4E86B0376804F085F8804629
S2140016F004F08EF8284D294C2B6842460493B4F922
S2140017000C3027490393B4F90A3002936388019397
S214001710238800930346384607F06EFE04F078F8F8
S214001720296802F05FFCB4F90C102A68608800F0A3
S2140017308DFE296881B904F06BF804F063F86388BD
S2140017402380B4F90C306381FFF798F8286806B058
S214001750BDE8F041FFF762BF0023124A009312482B
S21400176004F0D6FC044688B1104A1149306807F0E8
S21400177043FE10492246306807F03EFE204604F03D
S2140017804FFD0D49306807F037FEFEE706B0BDE8AE
S214001790F08100BFB81F0020781C0020801C0020AD
S2140017A0AA670500951600004C1C00204260050044
S2140017B0466005004A600500146805002DE9F047FC
S2140017C08CB0BDF85C80DDE915579146EB88AA8899
S2140017D0CDE90178DFF834A2B5F90810DAF8000090
S2140017E000917A4907F008FE04F006F8AB885646E2
S2140017F08342774C57D12288EB889A4253D1B4F96A
S2140018000A20B5F908309A424DD17249DAF800003C
S21400181007F0F2FD9DF8603047449B0731D58525DB
S2140018208DF8105003F0E8FF62782378ADF81400C6
S21400183043EA0223ADF81630E27AA37A8DF82050F8
S21400184043EA0223ADF8183003F0E2FFE278A3780B
S214001850ADF8240043EA0223ADF82630627B237BF2
S214001860029743EA0223ADF8283008AB019304AB95
S21400187000934A46BDF85030002141F20330FFF78E
S21400188011FC3846FFF7CAFE802200214FF498501C
S214001890FFF70EF98622012141F20630FFF708F91C
S2140018A00CB0BDE8F08703F0A7FFAA88904203D0EB
S2140018B04949306807F0A0FDEA882388934203D0A0
S2140018C04649306807F098FDB5F90820B4F90A30A3
S2140018D0934203D04249306807F08EFDA88807BBC4
S2140018E0B8F1000F20D103F08DFFA88803F096FF13
S2140018F0A88808B103F0A4FF03F07EFF002102F0E1
S21400190071FBE888B5F908100022208060806181AC
S214001910A18100F09BFDFEF7B1FF0020FFF7D4F990
S21400192078E7B8F1000F23D003F078FFEB882D4A54
S21400193063802B894146A38100232B48009304F043
S214001940E7FB054688B1294A2949306807F054FD67
S21400195028492A46306807F04FFD284604F060FC08
S2140019602549306807F048FDFEE7244B1F60D2E7A4
S21400197003F054FFEB8863802B89A38103F048FFB4
S214001980394602F02FFB3A46B4F90C10608800F096
S2140019905DFDCDF800804346194A3946194804F0E3
S2140019A0B7FB05460028B6D0104A1149306807F044
S2140019B023FD10492A46306807F01EFD284604F02D
S2140019C02FFC1149306807F017FDFEE77069050027
S2140019D0801C00208F730500C9690500E5690500B5
S2140019E0096A0500E1160000341B0020426005006D
S2140019F0466005004A600500246A0500781C002041
S214001A00951600004C1C002014680500B81F002026
S214001A10862110B5134B8AB05C781A788DF80810BA
S214001A2042EA0422ADF80C20DC7A9A7A8DF8181077
S214001A3042EA0422ADF80E20D9789A7842EA0122CA
S214001A40ADF81C201A7B5B7B012142EA0323ADF82C
S214001A501E30009006AB02AA41F20630FEF7F8FFF1
S214001A600AB010BD801C00202DE9F341474D089EAA
S214001A704749286817469846464C07F0BDFC4EBBBB
S214001A80B88803F0CBFEFB8863803B89A38103F014
S214001A90B3FE804603F0BCFE804525D122886388CD
S214001AA09A4221D1B4F90A20B4F90C309A421BD1DB
S214001AB03949286807F0A0FC3046FFF7A9FF014621
S214001AC000285FD1852241F2033002B0BDE8F04124
S214001AD0FEF7EEBFB8F8040003F0A0FEB8F8063034
S214001AE06380B8F80830D1E7D5F8008003F090FEA0
S214001AF063880196B4F90C202849009202464046B5
S214001B0007F07AFC03F078FE804603F081FE8045FD
S214001B1004D003F07DFE314602F064FA6088238824
S214001B20B4F90C10834203D1B4F90A308B4202D0C8
S214001B30324600F08BFC4EB9B88803F063FEFB8893
S214001B4023803B896381FEF799FEB5E70023144A9C
S214001B5000933146134804F0DBFA04460028F2D01E
S214001B60114A1249286807F047FC1149224628689E
S214001B7007F042FC204604F053FB0E49286807F0A5
S214001B803BFCFEE702B0BDE8F08100BFB81F0020B6
S214001B9000690500801C00208F730500136905008E
S214001BA0951600004C1C00204260050046600500AB
S214001BB04A6005001468050008B5FFF729FF38B924
S214001BC0BDE808408622012141F20630FEF770BFCC
S214001BD008BD000008B50A490A484A88B1F90C3021
S214001BE00A804B8192B21BB20749006807F004FCDA
S214001BF0FEF744FEBDE808400020FFF7DDBF00BF4B
S214001C00801C0020B81F0020666E05002DE9F341F9
S214001C102A4D089E2A49286817469846294C07F0F8
S214001C20EBFBBEB9BB886380FB8862882188A381F2
S214001C309142B4F90C30286812D1B4F90A109942CE
S214001C400ED1214907F0D8FB304602B0BDE8F0417E
S214001C50FFF7B2BFB8F804306380B8F80630E4E7A0
S214001C601A49009607F0C8FB3246B4F90C10608893
S214001C7000F0ECFB36B9BB882380FB886381FEF757
S214001C80FDFDE1E70023124A00933146114804F0B7
S214001C903FFA04460028F2D00F4A1049286807F099
S214001CA0ABFB0F492246286807F0A6FB204604F047
S214001CB0B7FA0C49286807F09FFBFEE7B81F00201C
S214001CC04A6F0500801C00208F730500696F0500B1
S214001CD0D51B0000241C002042600500466005005D
S214001CE04A600500B56F05007FB5214E214C31686E
S214001CF0638822880291B4F90C101F4D0191B4F943
S214001D000A10286800911D4907F076FBB4F90C10FC
S214001D103268608800F09AFB316861B96388238076
S214001D20B4F90C306381FEF7A9FD306804B0BDE855
S214001D307040FFF741BF0023114A0093114804F09A
S214001D40E7F9044688B1104A1049286807F054FBA2
S214001D500F492246286807F04FFB204604F060FA39
S214001D600C49286807F048FBFEE704B070BD00BFCA
S214001D70741C0020801C0020B81F00205568050039
S214001D80D51B0000241C00204260050046600500AC
S214001D904A600500B56F05002DE9F0478CB0BDF828
S214001DA05C50DFF8C8A1624CDDE915789146B7F9BA
S214001DB00630BA885F49CDE90085DAF8000007F0FA
S214001DC01BFBBA882388564693424BD1B4F90A20A7
S214001DD0B7F906309A424AD15749DAF8000007F0B8
S214001DE00BFB9DF8603045449B0729D58622617819
S214001DF023788DF8102043EA0123ADF81430E17AF9
S214001E00A37A8DF8202043EA0123E278ADF8163055
S214001E10A378029543EA0223ADF82430627B237B45
S214001E20012143EA0223ADF8263008AB019304AB48
S214001E3000934A46BDF8503041F20630FFF732F9BB
S214001E402846FFF7B9FE8522002141F20330FEF74F
S214001E502FFE0222012141F20200FEF729FE0CB0FD
S214001E60BDE8F0873549DAF8000007F0C5FAB7F99B
S214001E700620B4F90A30934203D03149306807F09F
S214001E80BBFAB888B7F90610B8F1000F0DD16DB9D6
S214001E902A46208060806181A18100F0D7FAFEF793
S214001EA0EDFC0120FEF710FF9BE705B300236080E2
S214001EB0A1810093234A2946234804F029F90746BE
S214001EC088B1224A2249306807F096FA21493A46F4
S214001ED0306807F091FA384604F0A2F91E493068D7
S214001EE007F08AFAFEE71D4BC3F80080D7E74246A4
S214001EF06080A18100F0AAFA00952B46184A414658
S214001F00184804F005F907460028C8D00F4A1049BB
S214001F10306807F071FA0F493A46306807F06CFAF5
S214001F20384604F07DF91049306807F065FAFEE798
S214001F30801C0020EE6F05008F730500E569050024
S214001F40096A0500E91C00005C1B002042600500D1
S214001F50466005004A60050045700500741C0020B8
S214001F60D51B0000241C0020B56F0500B81F0020FC
S214001F7073B5354E354C3168354DB4F91230B4F979
S214001F80102028680091334907F036FA324B1B7848
S214001F90042B33D0052B3AD0022B52D1B4F90A10B9
S214001FA03268608800F052FA316869B9B4F91230C4
S214001FB0238263882380FEF761FC3168012002B02B
S214001FC0BDE87040FEF786BF0023244A00932448ED
S214001FD004F09EF80446A0B3224A2349286807F076
S214001FE00BFA22492246286807F006FA204604F033
S214001FF017F91F49286807F0FFF9FEE7B4F9120041
S214002000B4F91030C01AFEF7FDFD1A49D6E700F005
S214002010A1FAE288238920806080801AC0EB004005
S2140020209B1AB0FBF3F3A3F5004323826382FEF70B
S2140020307BFDB4F90A100022208800F007FA002180
S214002040BCE702B070BD00BF7C1C0020801C0020D6
S214002050B81F0020BD68050070100020250F000086
S214002060D41B002042600500466005004A6005005B
S214002070F1730500005A6202F0B5142289B00021FF
S214002080754852F04EF9002302AA0293142103ABBE
S21400209044F2050024F046FC6F4C054618B9029A37
S2140020A0142A00F08B80142200216B4852F039F974
S2140020B06423237119230021637120230322A17353
S2140020C0E1732188A371B1F5487F38BF237023726E
S2140020D044F6206338BF6270E27122884E209A422E
S2140020E081BF202323704E23637063885B4EB3F555
S2140020F0487F3FBF2023A3700323E37044F620638A
S214002100628860729A4282BF2023A3704E23306892
S21400211088BFE370002D40D1029B1422504907F07F
S2140021206BF903F099FB054603F090FB01284AD9AA
S214002130022855D00024FEF7A1FB4A4B4A4A0093DA
S21400214000214A4B41F20330FEF79AFE21460094E6
S214002150474B484A41F20430FEF792FE464B474A48
S21400216000930121464B41F20630FEF789FE454BAF
S214002170454A00930121454B41F20200FEF780FEDE
S21400218087212046FEF7C4FD88212046FEF7C0FDC5
S2140021902046FFF711FD09B0F0BD3D4A3D4907F066
S2140021A02BF92A463C49306807F026F9284604F001
S2140021B037F83A49306807F01FF9B2E703A9204616
S2140021C052F08BF8ADE70022A088B4F90E102080FC
S2140021D060806181A18180B209B200F037F9A9E779
S2140021E0628893B285B3A788B4F90E60B8B29842F5
S2140021F031B203D1B4F90CC08C4525D02A4666818D
S214002200278000F023F90023254A00932946254815
S21400221003F07EFF064690B1104C234A1D49206805
S21400222007F0EAF81C493246206807F0E5F8304621
S21400223003F0F6FF1D49206807F0DEF8FEE72A46A1
S214002240B4F90C106088C8E7B4F90C1022806181DC
S214002250002209B21846C0E7801C0020B81F0020E4
S21400226028750500691A0000BD170000F90F000068
S2140022707D0D0000151100000D1C0000991D0000CA
S214002280D908000045090000CD120000BD0B000073
S2140022908F750500466005004A60050093750500C9
S2140022A0D51B0000241C002042600500B56F050009
S2140022B003680C4A23F47F4323F00703934209D0B4
S2140022C002F11062934207D002F17642934207D1A0
S2140022D003792BB1FFF7D0BE44F2050024F04EBBC5
S2140022E0704700BFA8001401704770472DE9F84FEB
S2140022F0464A1378C3B9464803F0F0FE0546002860
S21400230034D0444C444A4549206807F075F844499F
S2140023102A46206807F070F8284603F081FF4149F6
S214002320206807F069F8FEE73F4B404E1C68DFF870
S214002330149101341C603E4BDFF80CA11F683D4B26
S214002340BC4218883C4BB3F900804FF000030FD313
S214002350137064233080A9F80080AAF800301FFAB2
S21400236088F1FFF7C2FF3088FFF7BEFFBDE8F88FA1
S214002370324A158885422FD8401BA0FB04BCC217E2
S21400238004FB02CC58463A46614651F095FD284477
S2140023902B4B3080B3F90000404585B229DCA8EB12
S2140023A00000C317A0FB04013A4604FB03110023F8
S2140023B051F082FD2844BAF80030A9F800005A1CF3
S2140023C092B2632AAAF80020CDD9633B3088AAF8D7
S2140023D00030B9F80010C4E7281AA0FB04BCC217E6
S2140023E004FB02CC58463A46614651F065FD281A71
S2140023F0CEE7A0EB0800C317A0FB04013A4604FB97
S2140024000311002351F058FD281AD4E7A61C00201B
S214002410B01C0020B81F0020426005004660050082
S2140024204A60050020760500A81C002072100020D7
S214002430AC1C0020A41C0020A21C0020A01C002015
S2140024409E1C00209C1C00207410002044F6206374
S2140024509842F7B528BF1846B0F5487F38BF4FF406
S214002460487017462A4E2B4D2B4C22BB30802980B5
S214002470FFF73AFF2378C3B12848277003F02EFEF3
S214002480074690B1264C274A2749206806F0B4FF35
S21400249026493A46206806F0AFFF384603F0C0FEED
S2140024A02349206806F0A8FFFEE729883088FFF752
S2140024B01CFF03B0F0BD1F4B1A6032881E4B1A80FB
S2140024C01E4B2A8818801E4B14481A801D4B1E4A25
S2140024D01980012100232170136000911B4A03F02C
S2140024E017FE05460028E4D00D4C0E4A0E4920681B
S2140024F006F082FF0D492A46206806F07DFF284632
S21400250003F08EFE1249206806F076FFFEE700BF55
S214002510721000209C1C0020A61C0020B01C00206E
S214002520B81F002042600500466005004A600500AE
S21400253020760500AC1C0020A01C0020A41C002057
S2140025409E1C0020A21C0020A81C0020ED220000DB
S214002550E3750500014B1888704700BF7210002015
S21400256037B50146F0B10368B34A23F47F4323F03E
S2140025700703934200F0FC8078D8B04A934200F0FC
S214002580F68136D8A2F53812934200F0CB8115D8E2
S214002590A2F57022934200F0F68005D8A84A93422E
S2140025A000F0DE8003B030BDA64A934200F0C28140
S2140025B002F5E0229342F5D1A349D2E0A34A934222
S2140025C000F0E7800AD8A2F51412934200F02981A1
S2140025D002F510129342E5D19D49C2E09D4A93420E
S2140025E000F0CB8102F580329342DBD182899A4992
S2140025F00FE09A4A934200F0188119D8A2F580128B
S214002600934200F0C48007D8954A9342CAD1828884
S2140026109449954B1868CDE0944A934200F08C811B
S21400262002F530229342BDD1C38882889049F1E0FA
S214002630904A934200F0A4810AD8A2F5C0229342A1
S21400264000F0BF8002F580329342ABD18A4988E021
S2140026508A4A934200F0728102F580329342A1D1F9
S2140026600189838942890091854989E0854A934298
S21400267000F08E8139D802F17F42934200F08381C8
S21400268016D8A2F52812934200F0508105D8A2F57C
S2140026908022934286D17C4963E07C4A934200F0D4
S2140026A0938002F5803293427FF47CAF784958E0FD
S2140026B0784A934200F08E800DD8A2F544029342E9
S2140026C000F0408102F5803293427FF46BAFD0F881
S2140026D0062071499DE7714A934277D002F5803211
S2140026E093427FF45FAF6E493BE06E4A934200F040
S2140026F03A811BD8A2F50022934269D00BD8A2F5E6
S2140027007802934200F0228102F5770293427FF42A
S21400271049AF654925E0654A93423CD002F58022E0
S21400272093427FF43FAFC268614972E7614A9342C1
S21400273067D00BD802F17E42934226D002F1807217
S21400274093427FF42FAF82885B4962E75B4A9342ED
S21400275043D002F1807293427FF424AF584900E0E0
S2140027605849414B186803B0BDE8304006F044BEF7
S214002770B0F80910B0F80730B0F8052000915249BB
S2140027803948006838E05149EBE75149E9E75149D3
S214002790E7E75149E5E7344B18688B8803F4404275
S2140027A0B2F5404F0BD013F4805F4C4B4C4A18BF29
S2140027B01A464C4903B0BDE8304006F01DBE4A4AF2
S2140027C0F7E70289494924E74949CAE74949C8E77A
S2140027D04949C6E7C28849491BE7234B0479B1F843
S2140027E007201868B1F809304CB14549454D012C11
S2140027F018BF29460091444906F0FEFDD2E643493B
S214002800F8E70079B1F80530414A4249002818BF78
S2140028100A4641491448006803B0BDE8304006F057
S214002820EBBDC38882883D49F4E70189C388828866
S21400283000913B49A4E700BFA0000602A800510093
S214002840A0000600A8001800AB7E0500A8004900FE
S21400285002790500A8004D0059800500A800240153
S214002860A000060143770500B81F0020A800180145
S2140028704E7B0500A8004D0135790500A8005001E3
S214002880087E0500A8004D03E07E0500A80047026C
S21400289068790500A80014036A7E0500A8004703AF
S2140028A09C790500A8005004E1780500A8004904BA
S2140028B00F800500A8001408DA770500A8001409A0
S2140028C062770500DE760500FC7605007877050061
S2140028D094770500B977050007780500627605004D
S2140028E07E760500327805006C7605005578050082
S2140028F089780500B5780500CF790500027A0500CD
S214002900B376050088760500277A05009A760500D6
S214002910CA760500D27605006C7A0500A67A050010
S214002920F37A0500C38882881B4973E7C3888288C8
S2140029301A496FE71A4914E71A4912E743890289C8
S214002940194967E743890289184963E783894289F9
S214002950D0F80E00019009891548009100681549C5
S21400296006F04AFD1EE6D0F80620134951E6018916
S214002970838942890091114902E7027B104948E6A3
S214002980027B104945E6D0F80D30027B0E4941E740
S214002990027B0E493DE600BF8E7B0500D17B05001D
S2140029A0157C0500337C0500547C0500A07C0500E2
S2140029B0B81F0020F57C05006C7D0500A77D05008E
S2140029C0137F05004A7F05007D7F0500CE7F05004A
S2140029D0002024F079B8704737B527F007FE044684
S2140029E090B11A4D1A4A1B49286806F005FD1A4987
S2140029F02246286806F000FD204603F011FC174921
S214002A00286806F0F9FCFEE7FFF7E5FF009423468A
S214002A10134A4FF4FA61134803F07AFB054690B167
S214002A200A4C0B4A0B49206806F0E6FC0A492A467F
S214002A30206806F0E1FC284603F0F2FB0A4920680D
S214002A4006F0DAFCFEE703B030BD00BFB81F00207A
S214002A5042600500466005004A600500CE8005001D
S214002A60D1290000D81C0020F6800500FFF7B4BF6F
S214002A70036837B523F47F43124A23F007039342D3
S214002A801ED1FFF7A8FF00230F4A00934FF4FA6108
S214002A900E4803F03DFB054690B10D4C0D4A0E491D
S214002AA0206806F0A9FC0D492A46206806F0A4FC1A
S214002AB0284603F0B5FB0A49206806F09DFCFEE7B1
S214002AC003B030BDA800140AD1290000D81C00208D
S214002AD0B81F002042600500466005004A600500F9
S214002AE0F68005007047000037B523F065FF044602
S214002AF090B11A4D1A4A1B49286806F07DFC1A49FF
S214002B002246286806F078FC204603F089FB174921
S214002B10286806F071FCFEE7FFF7E4FF0094234602
S214002B20134A4FF4FA61134803F0F2FA054690B1DF
S214002B300A4C0B4A0B49206806F05EFC0A492A46F6
S214002B40206806F059FC284603F06AFB0A4920680C
S214002B5006F052FCFEE703B030BD00BFB81F0020F1
S214002B6042600500466005004A600500A780050033
S214002B70D1290000D81C0020F6800500FFF7B4BF5E
S214002B8010B5084C0849206806F036FC27F06EFBA6
S214002B90024628B120680549BDE8104006F02CBC66
S214002BA010BD00BFB81F00202D8105004A8105001A
S214002BB07047704708B50368124A23F47F4323F032
S214002BC00703934219D004D8A2F5801293420DD081
S214002BD008BD0D4A93420CD002F580129342F7D1FD
S214002BE00289C1888088FFF7E4FFF1E70379002BAC
S214002BF0EED0BDE80840FFF7C3BFC1888088FFF766
S214002C00D7FFE5E7A8002400A800140103210B2045
S214002C1007F0F4BE38B50368234A23F47F4323F055
S214002C20070393420CD004D8A2F5302293420BD06F
S214002C3038BD1E4A934203D002F180729342F7D108
S214002C40BDE8384007F012BF27F0F4FA054690B109
S214002C50174C184A1849206806F0CEFB17492A4632
S214002C60206806F0C9FB284603F0DAFA1449206803
S214002C7006F0C2FBFEE727F0C1FA05460028D7D0CB
S214002C800B4C0C4A0C49206806F0B6FB0B492A464A
S214002C90206806F0B1FB284603F0C2FA094920680E
S214002CA006F0AAFBFEE700BFA8001F00A8001F0151
S214002CB0B81F002042600500466005004A60050017
S214002CC06F8105009C810500002337B50E4A0093EE
S214002CD041F288310D4803F01BFA054690B10C4CC2
S214002CE00C4A0D49206806F087FB0C492A462068E6
S214002CF006F082FB284603F093FA0949206806F09E
S214002D007BFBFEE703B030BD812D0000B41D002024
S214002D10B81F002042600500466005004A600500B6
S214002D200E860500002337B50E4A009341F288311F
S214002D300D4803F0EDF9054690B10C4C0C4A0D49D0
S214002D40206806F059FB0C492A46206806F054FB1A
S214002D50284603F065FA0949206806F04DFBFEE7B1
S214002D6003B030BDD52D00008C1D0020B81F0020FC
S214002D7042600500466005004A600500798505004A
S214002D8038B50E4A052144F2060023F099FD0546A3
S214002D9098B10B4C0B4A0C49206806F02DFB2A46CE
S214002DA00A49206806F028FB284603F039FA20680E
S214002DB00749BDE8384006F01FBB38BDDC1D0020C3
S214002DC0B81F0020316E0500466005004A60050009
S214002DD0E585050038B50E4A352144F2070023F094
S214002DE06FFD054698B10B4C0B4A0C49206806F05F
S214002DF003FB2A460A49206806F0FEFA284603F036
S214002E000FFA20680749BDE8384006F0F5BA38BD25
S214002E10541D0020B81F0020316E050046600500D6
S214002E204A600500B385050070B500220646184BBB
S214002E308AB0D8781B798DF808208DF80C008DF8AC
S214002E4018208DF81C30009106AB02AA31464FF4CC
S214002E50805007F0A6FE0446B8B10E4D0E4A0F4944
S214002E60286806F0C9FA22460D49286806F0C4FA12
S214002E70204603F0D5F99DF808304FF480520093B1
S214002E8008493346286806F0B7FA20460AB070BDEF
S214002E90DC1D0020B81F0020316E050046600500CE
S214002EA04A6005002A840500DFED197AB4EEE70AC9
S214002EB0F1EE10FA174B186804DD6FF00042164961
S214002EC006F09ABADFED157AB4EEE70AF1EE10FADC
S214002ED003D54FF000421249F2E7BDEEC07AB5EED8
S214002EE0C00AF8EEC77AF1EE10FADFED0E6ACCBF34
S214002EF030EE670A37EEC00A20EE260ABCEEC00A9D
S214002F0010EE103A17EE102A9BB2074906F074BA74
S214002F100000004FB81F002045860500000000CFC7
S214002F204B86050000007A445186050038B50B4CE8
S214002F3013791546E2780A499342086808D0094989
S214002F4006F05AFA2B79E370BDE83840FFF7BCBEAE
S214002F500549BDE8384006F04FBA00BFDC1D00202A
S214002F60B81F00200B8205002E82050073B50546AB
S214002F70FFF75AFF044678B9024629464FF48050B8
S214002F8007F02BFE40F214539842044607D040F256
S214002F901553984203D0D0B9204602B070BD0D4EEE
S214002FA00D4A0E49306806F027FA22460C4930686A
S214002FB006F022FA204603F033F900234FF480523D
S214002FC0009308492B46306806F016FAE4E7014EEF
S214002FD0054AE6E7B81F0020E070050046600500D9
S214002FE04A6005006C840500316E05002DE9F74344
S214002FF0274C0A9E88462068264917469946264D3D
S21400300006F0FAF986B93B792B712979EB782068B6
S2140030108B420CD1214906F0EFF93146404603B009
S214003020BDE8F043FFF7A2BF99F80430ECE7DFF8FD
S21400303090C01B4A3346002908BF6246194906F06D
S214003040DBF926B93B79EB70FFF73EFEE5E72B7917
S214003050154A012B08BFEB70002331460093134836
S21400306003F056F805460028EED0114A11492068AC
S21400307006F0C2F910492A46206806F0BDF928462F
S21400308003F0CEF80D49206806F0B6F9FEE700BF5B
S214003090B81F002065820500DC1D00208F73050028
S2140030A05E82050080820500C53000002C1D0020D1
S2140030B042600500466005004A600500B2820500D1
S2140030C06182050008B50A4A0A491379D3700A4A8C
S2140030D0002B18BF0A46094B0949186806F08CF9F8
S2140030E0FFF7F2FDBDE8084000210220FFF73EBFD3
S2140030F0DC1D00205E82050061820500B81F0020EE
S21400310003840500F7B51E4E1E4D31681E4C2B7904
S214003110EA78206800911D4906F06EF931682B792F
S214003120374649B9EB70FFF7CFFD0220316803B090
S214003130BDE8F040FFF71ABF012B03D10220EB7069
S214003140FFF772FE00230093114A3968114802F017
S214003150DFFF054688B1104A1049206806F04CF992
S2140031600F492A46206806F047F9284603F058F823
S2140031700C49206806F040F9FEE703B0F0BD00BF3A
S214003180001D0020DC1D0020B81F0020D481050093
S214003190C53000002C1D002042600500466005007A
S2140031A04A600500B28205002DE9F04F8DB0179BEE
S2140031B0189EBDF864809146654C1A79DFF8D8B140
S2140031C0DFF8D8A13346002A0CBF5A4652460F46AF
S2140031D02068CDF800805F4906F00EF95E4D179B1B
S2140031E01A79EB78934242D15C49206806F004F9DC
S2140031F09DF8683046449B0732D50023EA788DF860
S21400320010308DF814208DF820302A79CDE902632D
S21400321008AB019304AB8DF8242000934A46BDF812
S214003220583039464FF4805007F094FC0546B8B144
S2140032304B4A4C49206806F0DFF82A464A4920687F
S21400324006F0DAF8284602F0EBFF9DF810304A4602
S214003250CDE9007345494FF48053206806F0CCF85A
S21400326031463846FFF782FE0DB0BDE8F08F002AE3
S2140032700CBF5A4652463E49206806F0BDF8179BDA
S2140032801B79F6B9B8F1000F1ED1EB702B71FFF762
S2140032901BFD384627F022F882460028A8D0354A7B
S2140032A03049206806F0A8F82F495246206806F0F4
S2140032B0A3F8504602F0B4FF2F49206806F09CF8A9
S2140032C0FEE7B8F1000F1ED02B7100232B4A0093A7
S2140032D041462B4802F01CFF824688B1254A214908
S2140032E0206806F089F820495246206806F084F8DF
S2140032F0504602F095FF2349206806F07DF8FEE769
S214003300214B1E60C3E7012B3146384608BFEB70E1
S2140033102B71FFF789FD00231C4A009331461C4899
S21400332002F0F6FE82460028B1D0124A0D49206807
S21400333006F062F80C495246206806F05DF85046E2
S21400334002F06EFF1349206806F056F8FEE700BF4D
S214003350B81F0020EF820500DC1D00208F730500DB
S214003360316E0500466005004A600500B88305001A
S21400337033830500426005008583050005310000A3
S214003380041D00204B830500001D0020C5300000F2
S2140033902C1D0020B2820500618205005E820500B9
S2140033A0034670B5427813F8035B45EA02252946C2
S2140033B08278022027F070F840F2145398420446B0
S2140033C005D040F21553984201D0B0B970BD0C4EEE
S2140033D00C4A0D49306806F00FF822460B49306853
S2140033E006F00AF8204602F01BFF2B463068022241
S2140033F0BDE87040064905F0FFBF014E054AE8E704
S214003400B81F0020E0700500466005004A60050011
S214003410728B0500316E050001292DE9F84306463A
S21400342005D9022919D0BDE8F843FFF74DBC0025A1
S214003430794C29462570A570E570257126F0A8FF01
S21400344061788046304626F0C3FF2A460746A178B4
S214003450304626F0DDFF04460BE06F4D2C78214603
S214003460C4B926F095FF69788046304626F0B0FF4E
S214003470074640F21455A8457CD040F215539845AF
S2140034801DD0B8F1000F40F08F80AF4200F08F8063
S2140034909F422EE026F07CFF69788046304626F074
S2140034A097FFA978074609B90A46D1E75B4802792B
S2140034B0C37843EA0223427943EA0242C8E7DFF8C8
S2140034C07091574A5749D9F8000005F095FF4246D3
S2140034D05549D9F8000005F08FFF404602F0A0FEDF
S2140034E032465249D9F8000005F086FFAF425ED05A
S2140034F047450DD00FB34E4D4E4A4A49286805F051
S2140035007BFF3A464C49286805F076FF38460DE0C2
S214003510474D434A4349286805F06EFF40F215526E
S2140035204549286805F068FF40F2155002F078FE1D
S21400353032464249286805F05FFF40F214539C4229
S2140035405AD040F215539C4240D0002C3FF46BAF4B
S214003550374D384A3349286805F04EFF2246384929
S214003560286805F049FF204602F05AFE32463549E3
S21400357028683EE02E4D2A4A2A49286805F03CFF76
S21400358042462949286805F037FF404602F048FEC3
S21400359032462649286805F02FFF40F214539F4212
S2140035A005D040F2155373E7214D224AE4E7204D3B
S2140035B01B4A1C49286805F01FFF40F214521E499A
S2140035C0286805F019FF40F21450AFE7184C144A6B
S2140035D01449206805F010FF40F21552184920687B
S2140035E005F00AFF40F2155002F01AFE3246154961
S2140035F0206805F001FF16E70D4C094A09492068C6
S21400360005F0FAFE40F214520D49206805F0F4FE6B
S21400361040F21450E8E700BFDC1D0020541D0020D7
S214003620E070050046600500AF840500C88405000C
S214003630B81F0020316E0500F184050008850500DE
S2140036402F85050049850500F0B5022093B026F0C9
S21400365081FE054690B1B64CB64AB749206805F0DB
S214003660CBFE2A46B549206805F0C6FE284602F07D
S214003670D7FD0222B249206805F0BEFE05220021D1
S214003680B04850F04EFE002303AA0393052104AB76
S21400369044F2060023F046F9AA4C064618B9039AE7
S2140036A0052A00F0A58105220021A64850F039FE23
S2140036B000232370012363709D4C002E40F086810A
S2140036C0039B0522A049206805F096FE35220021BE
S2140036D09E4850F026FE002303AA0393352104AB30
S2140036E044F2070023F01EF9984C074618B9039ACF
S2140036F0352A00F0948135220021944850F011FEBE
S214003700934B8B4E6362934BA362934BE3622363AC
S214003710042384F83430002F40F06F81039B352259
S2140037208E49306805F068FE6421022026F094FE7B
S214003730074690B17E4E7F4A7F49306805F05CFEB2
S2140037403A468749306805F057FE384602F068FD6D
S21400375002227B49306805F04FFE6278237804A980
S21400376043EA0223A2783A2043EA024303AA0393D9
S21400377007F040FA04A8FFF713FE2279E37804A9BD
S21400378043EA02236279372043EA024303AA0393FB
S21400379007F030FA04A8FFF703FEE279A37904A93C
S2140037A043EA0223227A3C2043EA024303AA039315
S2140037B007F020FA04A8FFF7F3FDA27A637A04A9BB
S2140037C043EA0223E27A362043EA024303AA03933B
S2140037D007F010FA04A8FFF7E3FD627B237B04A939
S2140037E043EA0223A27B3B2043EA024303AA039355
S2140037F007F000FA04A8FFF7D3FD227CE37B04A9B8
S21400380043EA0223627C382043EA024303AA039376
S21400381007F0F0F904A8FFF7C3FDE27CA37C04A937
S21400382043EA0223227D392043EA024303AA039394
S21400383007F0E0F904A8FFF7B3FD4A4A04A92E20D2
S21400384007F0D8F904A8FFF7ABFD474A04A92F20D4
S21400385007F0D0F904A8FFF7A3FD444A04A93020D6
S21400386007F0C8F904A8FFF79BFD227FE37E04A9B2
S21400387043EA0223627F2B2043EA024303AA039310
S21400388007F0B8F904A8FFF78BFDE27FA37F04A931
S21400389043EA022394F820202C2043EA024303AA9A
S2140038A0039307F0A7F904A8FFF77AFD94F82220FF
S2140038B094F8213004A943EA022394F823202D200B
S2140038C043EA024303AA039307F094F904A8FFF718
S2140038D067FD274A04A9332007F08CF904A8FFF7F0
S2140038E05FFD244A04A9322007F084F904A8FFF7F4
S2140038F057FD214A04A9352007F07CF904A8FFF7F4
S2140039004FFD1E4A04A9342007F074F904A8FFF7F7
S21400391047FD1B4A04A9312007F06CF904A8FFF7FD
S2140039203FFDFFF7FFF901F091FFC1B2022029E049
S214003930B81F00208F750500466005005A860500F2
S21400394072860500DC1D00209E860500541D0020A2
S21400395000007A430000C8410000A04245870500E9
S2140039604A600500691D00206B1D00206D1D0020AB
S214003970781D00207C1D0020801D0020841D002056
S214003980881D0020FFF748FD294B2A4A0093022194
S214003990294B4FF4805007F045F80646002843D0E0
S2140039A0264C274A2749206805F026FD3246264938
S2140039B0206805F021FD304602F032FC02234FF469
S2140039C080522249206805F017FDFEE7204A1D496F
S2140039D0206805F011FD32461B49206805F00CFDF5
S2140039E0304602F01DFC1B49206805F005FD6DE61B
S2140039F004A9204650F071FC68E6154A1149306863
S214003A0005F0FAFC3A461049306805F0F5FC3846F1
S214003A1002F006FC1049306805F0EEFC84E604A9C6
S214003A20204650F05AFC7FE6284613B0F0BD00BF93
S214003A30ED2F0000A93100002D2F0000B81F002038
S214003A4042600500466005004A600500FE870500E6
S214003A508F750500FD860500AD8705002DE9F0434E
S214003A600368C34A23F47F4323F007039342B7B0A7
S214003A7006460ED012D8A2F5470293425AD002F557
S214003A808032934229D0A2F5681293420ED1037970
S214003A9063B137B0BDE8F043FFF7D6BDB54A9342F1
S214003AA05AD006D802F17F4293424BD037B0BDE8D9
S214003AB0F083B14A934253D002F1986202F5E022B5
S214003AC09342F3D144F2060022F058FF44F2070076
S214003AD037B0BDE8F04322F051BFDFF8A88200F10E
S214003AE00F076FF00E093D464446A9EB0009B27B6E
S214003AF009EB07039A42D8F8000045DC9F4905F019
S214003B007BFCB3892B3B112B00F2FD80DFE813F022
S214003B10180158017001ED0000010C01CA01A00156
S214003B208A01BC01AE018D005D00BD00D5004200DB
S214003B30A5007500027B924B1A7037B0BDE8F043C3
S214003B40FFF7C2B88F4B027B8F49186805F054FC0C
S214003B50327B8B4B5A70F0E7027B894B9A70ECE70E
S214003B60C088C0EB00404FF04DFD41EC100B51F00B
S214003B70B5FE51EC100B4FF0D1FF002180B237B0EC
S214003B80BDE8F04300F02EBA17F8012B7F4905F088
S214003B9033FCACE72A463A2133A807F073F9339B87
S214003BA07B4AC3F307215170C3F3074191704FF46A
S214003BB07A71137023F07F4393FBF1F201FB12330B
S214003BC07449206805F018FC9DE02A46372130A885
S214003BD007F058F9309B6E4AC3F307211171C3F3FF
S214003BE0074151714FF47A71D37023F07F4393FBF2
S214003BF0F1F201FB12336849E3E72A463C212DA87F
S214003C0007F040F92D9B624AC3F30721D171C3F335
S214003C10074111724FF47A71937123F07F4393FB3F
S214003C20F1F201FB12335D49CBE72A4636212AA87A
S214003C3007F028F92A9B564AC3F307219172C3F36B
S214003C400741D1724FF47A71537223F07F4393FB8E
S214003C50F1F201FB12335249B3E72A463B2127A86B
S214003C6007F010F9279B4A4AC3F307215173C3F3A1
S214003C70074191734FF47A71137323F07F4393FBDC
S214003C80F1F201FB123347499BE72A46382124A864
S214003C9007F0F8F8249B3E4AC3F307211174C3F3D8
S214003CA0074151744FF47A71D37323F07F4393FB2B
S214003CB0F1F201FB12333C4983E72A46392121A859
S214003CC007F0E0F8219B324AC3F30721D174C3F30F
S214003CD0074111754FF47A71937423F07F4393FB79
S214003CE0F1F201FB123331496BE72A462E211EA85A
S214003CF007F0C8F8BDF87820254B2D49A3F8152005
S214003D00206805F079FB37B0BDE8F043FFF70AB846
S214003D102A462F211BA807F0B5F8BDF86C201C4BCF
S214003D202449A3F81720EBE72A46302118A807F005
S214003D30A9F8BDF86020164B1F49A3F81920DFE745
S214003D402A462B2115A807F09DF8159B104AC3F3A9
S214003D5007211177C3F3074151776421D37623F007
S214003D607F4393FBF1F201FB1233144929E700BFAE
S214003D70A8001401A8004D02A8004D056F8B050091
S214003D80DC1D0020B81F00204A7F05004C88050077
S214003D90541D00205288050082880500AA88050068
S214003DA0D1880500F68805001E89050050890500A3
S214003DB084890500A6890500CD890500F4890500DB
S214003DC02A462C2112A807F05DF8129B404AC3F33E
S214003DD00721D177C3F3074182F820106421937737
S214003DE023F07F4393FBF1F201FB12333949E8E6F7
S214003DF02A462D210FA807F045F80F9B344AC3F337
S214003E00072182F82210C3F3074182F823106421A9
S214003E1082F8213023F07F4393FBF1F201FB12334B
S214003E202D49CEE62A4633210CA807F02BF8284D5C
S214003E300C9B2A4920686B6205F0DEFA6B6A00EE7E
S214003E40103AFFF731F82649206805F0D5FA5AE708
S214003E502A46322109A807F015F81D4D099B21496D
S214003E602068AB6205F0C8FAAB6AE8E72A46352157
S214003E7006A807F007F8164D069B1B492068EB625C
S214003E8005F0BAFAEB6ADAE72A46342103A806F008
S214003E90F9FF0F4D039B154920682B6305F0ACFA1C
S214003EA02B6BCCE72A463121684606F0EBFF9DF8DF
S214003EB00020074BFF2A83F8342001D10C49C3E7C2
S214003EC002F0010399000B4452080A4979E600BF44
S214003ED0541D0020258A05005B8A0500918A05008E
S214003EE06F8B0500B08A0500CF8A0500EE8A0500B4
S214003EF00D8B0500458B0500704770472DE9F8438C
S214003F002B490B78BBB92B4802F0E8F8054648B3B6
S214003F10294C2A4A2A49206805F06EFA29492A4679
S214003F20206805F069FA284602F07AF926492068E2
S214003F3005F062FAFEE7254B254E1D68254F013534
S214003F401D60254B1A68254B954218884FF00003D4
S214003F500AD30B70642330803B80FFF7CEFF308897
S214003F60FFF7CAFFBDE8F8831D490C88844213D8C2
S214003F70001B4FEAE079A0FB050105FB09114FF095
S214003F809BFF20443B8830805A1C92B2632A3A80BA
S214003F90E5D93088633BDFE7201A4FEAE079A0FBDB
S214003FA0050105FB09114FF087FF201AEAE700BF5D
S214003FB0E41D0020F81D0020B81F00204260050008
S214003FC0466005004A60050020760500E81D0020D2
S214003FD0E21D002076100020EC1D0020F21D0020BF
S214003FE0F01D002073B50E46264D274C11BB2880C9
S214003FF0FFF782FF2378C3B12448267002F06EF8DC
S214004000064690B1224C234A2349206805F0F4F96D
S21400401022493246206805F0EFF9304602F000F9F2
S2140040201F49206805F0E8F9FEE72888FFF765FFD6
S21400403002B070BD1B4A0023116029881A4A1180FD
S21400404001211A4A21701080194A10481360009105
S214004050184A02F05DF805460028E9D00C4C0D4AD7
S2140040600D49206805F0C8F90C492A46206805F075
S214004070C3F9284602F0D4F80F49206805F0BCF9C9
S214004080FEE700BFE21D0020E41D0020F81D002012
S214004090B81F002042600500466005004A60050023
S2140040A020760500EC1D0020F01D0020F21D0020EB
S2140040B0E81D0020FD3E0000E375050001280146CE
S2140040C005D0022807D078B90120FFF78BBF002162
S2140040D04FF6FE70F9E7054B19680131196011F0CB
S2140040E00101F5D00021EFE7704700BFF41D002066
S2140040F0014B1888704700BFE21D00207047000083
S214004100002337B50E4A009341F288310D4801F07E
S214004110FFFF054690B10C4C0C4A0D49206805F08F
S2140041206BF90C492A46206805F066F9284602F025
S21400413077F80949206805F05FF9FEE703B030BD5F
S2140041405D410000301F0020B81F002042600500BF
S214004150466005004A6005000572050038B50E4A3F
S214004160142144F2040022F0ABFB054698B10B4C38
S2140041700B4A0C49206805F03FF92A460A49206890
S21400418005F03AF9284602F04BF820680749BDE8E2
S214004190384005F031B938BD2C1E0020B81F00206D
S2140041A0316E0500466005004A600500478E050032
S2140041B02DE9F341089C064600940F46904606F00B
S2140041C0F0FC0446B0B10D4D0D4A0E49286805F0C6
S2140041D013F922460C49286805F00EF9204602F02D
S2140041E01FF898F800303246009308493B46286886
S2140041F005F002F9204602B0BDE8F081B81F0020A5
S214004200316E0500466005004A600500A38C050077
S214004210002210B50A4B8AB01C785B788DF808200F
S2140042208DF818208DF81C30009106AB014602AAC6
S2140042304FF480508DF80C40FFF7BAFF0AB010BD5F
S2140042402C1E00207FB507238DF80830074B01464B
S2140042509B7802AA8DF80C30002341F204000093EC
S214004260FFF7A6FF07B05DF804FB00BF2C1E00207A
S2140042707FB583298DF808100CD0842912D000232E
S2140042800146009302AA4FF49850FFF791FF07B03B
S2140042905DF804FB0A4A937AD27A43EA0223ADF821
S2140042A00C30ECE7064B1A7B597B42EA0122ADF84C
S2140042B00C209A7BDB7B42EA0323ADF80E30DEE768
S2140042C02C1E00202DE9F34106460F46904606F0C8
S2140042D084FC40F214539842044608D040F215532A
S2140042E0984204D0D0B9204602B0BDE8F0810D4D0A
S2140042F00D4A0E49286805F07FF822460C492868C2
S21400430005F07AF8204601F08BFFCDF800803B469A
S21400431032460849286805F06FF8E4E7014D064A7A
S214004320E7E700BFB81F0020E07005004660050004
S2140043304A600500B58B0500316E050038B51A4891
S21400434001F0CCFE054690B1184C194A1949206870
S21400435005F052F818492A46206805F04DF8284618
S21400436001F05EFF1549206805F046F8FEE71448A0
S21400437001F0B4FE044690B10C4D0D4A0D49286874
S21400438005F03AF80C492246286805F035F820462C
S21400439001F046FF0B49286805F02EF8FEE70A4BA9
S2140043A018800A4B186038BD901E0020B81F0020E9
S2140043B042600500466005004A600500C792050099
S2140043C0081F002005930500801F0020841F002082
S2140043D038B515460C4CB5F90430B4F910200B4925
S2140043E09A4208680AD00A4905F006F8AB88238284
S2140043F0FFF786FEBDE83840FFF7A0BF0549BDE8D9
S214004400384004F0F9BF00BF2C1E0020B81F002063
S214004410469205006C9205002DE9734304464FF062
S214004420D5FE204D0646B5F900004FF0CFFE864279
S2140044301D4B1E4E2CDA1B68B5F90020A3FB0401A9
S2140044404FEAE47903FB0911D3174FF0E5FC044665
S2140044500146F088FFF7C6FD0023154A0093214663
S214004460144801F055FE0546C8B1134C134A1449CA
S214004470206804F0C1FF13492A46206804F0BCFFF8
S214004480284601F0CDFE1049206804F0B5FFFEE78F
S2140044901C68B0882B882146184480B2DAE702B040
S2140044A0BDE87083801F0020841F00202C1E002083
S2140044B07D480000081F0020B81F0020426005004D
S2140044C0466005004A6005009492050038B525F060
S2140044D005FF054690B10A4C0A4A0B49206804F0CD
S2140044E08BFF0A492A46206804F086FF284601F01A
S2140044F097FE0749206804F07FFFFEE738BD00BF3F
S214004500B81F002042600500466005004A600500AE
S214004510D1940500137870B5832B144602D0842BF3
S21400452015D070BD194DA3886A8919499A42086842
S21400453008D0184904F060FFA3886B81BDE870407E
S214004540FFF7DEBD1449BDE8704004F055BF0F4DBF
S214004550A388AA890E4E9A42306811D00F4904F0FB
S2140045604BFFA388AB81FFF7CBFDEA89E388306871
S2140045709A4209D00A4904F03FFFE388EB81DDE761
S214004580084904F039FFF0E70749DCE72C1E002055
S214004590B81F0020CD6A0500F76A0500B28F050037
S2140045A000900500D88F05002690050070B51446CB
S2140045B012780E49802AA388086804D0BDE87040A7
S2140045C00B4904F019BF0B4DAA889A4208D00A4935
S2140045D004F012FFA388AB80BDE87040FFF790BDE3
S2140045E00649BDE8704004F007BF00BFB81F0020B2
S2140045F0A48E05002C1E002064670500CA8E0500E8
S21400460038B50B4C1379154622780A499342086848
S21400461008D0094904F0F0FE2B792370BDE8384035
S214004620FFF76EBD0549BDE8384004F0E5BE00BFA3
S2140046302C1E0020B81F00200E8205002C910500BD
S21400464030B5022405468BB0104B8DF80840587CD8
S2140046501A7C8DF8184042EA0022ADF80C209A7CAD
S214004660DB7C41F2020042EA0323ADF81C300091E5
S21400467006AB02AA2946FFF79BFD28B92246294623
S21400468041F20200FFF71EFE0BB030BD2C1E0020CC
S2140046902DE9F743234C0A9D884620682249174691
S2140046A09946224E04F0A8FE95B9BB887382B6F9E7
S2140046B01220B6F91030206893420CD11C4904F041
S2140046C09BFE2946404603B0BDE8F043FFF7B8BF5F
S2140046D0B9F80430EAE72B46164904F08DFE25B9F2
S2140046E0BB883382FFF70CFDEBE70023124A0093EA
S2140046F02946124801F00CFD06460028F2D0104A62
S2140047001049206804F078FE0F493246206804F00D
S21400471073FE304601F084FD0C49206804F06CFE00
S214004720FEE700BFB81F0020409305002C1E0020A7
S2140047308F7305005F93050051470000B81E0020E8
S21400474042600500466005004A6005008F9305003C
S21400475008B50A4BB3F91220D9881A829980084BFB
S2140047600849186812B204F047FEFFF7C9FCBDE816
S214004770084000210846FFF763BF00BF2C1E00203C
S214004780B81F0020E38D0500F7B5304E304C316879
S214004790304DB4F91230B4F91020286800912E4933
S2140047A004F02AFE2D4B1B78042B32D0052B39D073
S2140047B0022B48D13168E088FFF714FC37686FB9E0
S2140047C0B4F912302382E388A380FFF799FC31689E
S2140047D0002003B0BDE8F040FFF732BF0023204AB8
S2140047E0009339461F4801F093FC044658B31E4A0E
S2140047F01E49286804F000FE1D492246286804F079
S214004800FBFD204601F00CFD1A49286804F0F4FD73
S214004810FEE7B4F91200B4F91030C01AFFF7FCFD39
S2140048201549D5E7FFF764FCA080E080A0F50040BE
S21400483020826082FFF782FD0021A088FFF7D2FB6E
S21400484000210846C5E703B0F0BD00BF281E0020C3
S2140048502C1E0020B81F0020A28D05007910002015
S21400486051470000B81E0020426005004660050063
S2140048704A6005008F930500005A620273B51F490F
S2140048801F4D09681F4C0191B5F900101E48009194
S214004890B4F910201D49B4F91230006804F0ACFDDC
S2140048A0B4F91030B4F91200C01A4FF08FFC064667
S2140048B0B5F900004FF08AFC864215DAB4F91230DA
S2140048C02382E388A380FFF71BFC11490020FFF733
S2140048D0B7FEB4F91200B4F91030C01A0CD002B00A
S2140048E0BDE87040FFF798BD2B88B4F910201A4435
S2140048F02282A2881344E5E702B070BD841F002020
S214004900801F00202C1E0020B81F00200E8E0500E1
S214004910005A620230B50D4B87B0DB7801258DF862
S2140049200C30002304460146009302AA41F206001A
S2140049308DF80850FFF73CFC28B92A46214641F27C
S2140049400600FFF7BFFC07B030BD00BF2C1E0020DE
S21400495010B50446FFF75CFC024630B92146BDE8B8
S21400496010404FF48050FFF7ADBC10BD2DE9F74363
S214004970274C0A9E88462068264917469946264DA3
S21400498004F03AFD86B93B796B7069782B7820681D
S2140049908B420CD1214904F02FFD3146404603B02E
S2140049A0BDE8F043FFF7D4BF99F80430ECE7DFF832
S2140049B090C01B4A3346002908BF6246194904F0D6
S2140049C01BFD26B93B792B70FFF79AFBE5E76B7862
S2140049D0154A012B08BF2B7000233146009313485D
S2140049E001F096FB05460028EED0114A11492068D2
S2140049F004F002FD10492A46206804F0FDFC284613
S214004A0001F00EFC0D49206804F0F6FCFEE700BF3E
S214004A10B81F0020688205002C1E00208F7305003A
S214004A205E82050080820500454A0000E01E0020E8
S214004A3042600500466005004A6005005991050081
S214004A406182050008B50A4A0A49537813700A4A73
S214004A50002B18BF0A46094B0949186804F0CCFC1D
S214004A60FFF74EFBBDE8084000210846FFF770BF81
S214004A702C1E00205E82050061820500B81F002003
S214004A8003840500F7B5274D274C2968274F637820
S214004A90227800913868264904F0AEFC296826463C
S214004AA0607891B9207050B9FFF708FBFFF728FB34
S214004AB00020296803B0BDE8F040FFF749BF208911
S214004AC0FFF790FA2389A380F0E700BBA071E0719E
S214004AD02968F088FFF786FA0023164A00932968AB
S214004AE0154801F015FB0446C8B1144A1449386845
S214004AF004F082FC13492246386804F07DFC204608
S214004B0001F08EFB1049386804F076FCFEE7238936
S214004B100020E38001232370FFF77AFBD8E703B079
S214004B20F0BD00BF241E00202C1E0020B81F002051
S214004B306E8D0500454A0000E01E0020426005001C
S214004B40466005004A6005005991050030B51446D8
S214004B508BB08DF808201B4A05469088802C83B2BF
S214004B601FBF4FF6FE7003FB03034FF6FF70B3FB49
S214004B70F0F30CBFADF80C00ADF80C308DF8184013
S214004B80D288802C93B21FBF4FF6FE7203FB03231E
S214004B904FF6FF72B3FBF2F30CBFADF81C20ADF876
S214004BA01C30009106AB02AA29464FF49850FFF736
S214004BB0FFFA28B9224629464FF49850FFF782FBA1
S214004BC00BB030BD2C1E002008B50A4BD9888AB21F
S214004BD0998002B11981084B0849186804F00CFC4A
S214004BE0FFF78EFA0021064B08461A78BDE8084003
S214004BF0FFF7ACBF2C1E0020B81F00207D8E0500DE
S214004C007810002073B51E4C1E4D21681E4EEB8892
S214004C10AA88009130681D4904F0EEFB2168E888F8
S214004C20FFF7E0F9216879B9EB889AB2AB8002B158
S214004C302B81FFF765FA0020154B21681A7802B021
S214004C40BDE87040FFF782BF0023124A0093124867
S214004C5001F05EFA044688B1104A1149306804F043
S214004C60CBFB10492246306804F0C6FB204601F014
S214004C70D7FA0D49306804F0BFFBFEE702B070BDFE
S214004C80201E00202C1E0020B81F0020EB8C0500E4
S214004C9078100020C94B0000581F00204260050015
S214004CA0466005004A600500288D05002DE9F7439B
S214004CB01746274C88462068264999460A9D04F0E0
S214004CC09BFB3B78802B40D1234E8DB9BB88F3806D
S214004CD0F288B388206893420DD1204904F08CFBFB
S214004CE080222946404603B0BDE8F043FFF72EBFBA
S214004CF0B9F80430EBE71A492B4604F07DFB294649
S214004D00F088FFF76FF925B9BB88B380FFF7F8F98D
S214004D10E6E70023134A00932946134801F0F8F902
S214004D2006460028F2D0114A1149206804F064FBB8
S214004D3010493246206804F05FFB304601F070FAF6
S214004D400D49206804F058FBFEE703B0BDE8F08389
S214004D50B81F0020EE8E05002C1E00208F73050065
S214004D60078F0500C94B0000581F00204260050051
S214004D70466005004A600500288D05007047000063
S214004D802DE9F043002485B003940E9C0C9E0294FB
S214004D900D9C8046CDE900648946174605F0DAFE8C
S214004DA00446B0B10D4D0E4A0E49286804F024FBA7
S214004DB022460D49286804F01FFB204601F030FA11
S214004DC033783A46CDE9009308494346286804F00C
S214004DD013FB204605B0BDE8F08300BFB81F0020D7
S214004DE0316E0500466005004A600500528C0500DD
S214004DF02DE9F04F8FB0199BBDF86C6005921A9D97
S214004E001A79DFF8A491DFF8A4B1DFF8A4A1009620
S214004E10002A0CBF5A4652462B468846D9F8000050
S214004E20534904F0E9FA534C199B4F461A792378F4
S214004E3093422ED15049D9F8000004F0DDFA9DF8CF
S214004E40703035449B0717D500238DF818308DF841
S214004E502830637822788DF82C300AAB019306ABA5
S214004E608DF81C2000930295BDF86030059A4146E7
S214004E704FF48050FFF784FF29464046FFF768FD51
S214004E80802241464FF49850FFF71CFA0FB0BDE859
S214004E90F08F002A0CBF5A4652463849D9F800000F
S214004EA004F0AAFA199B1B7995B996B9237063701A
S214004EB05BB9A671E6710021E088FFF793F8FFF76B
S214004EC01FF94046FFF702FBB9E72389E380F2E7C4
S214004ED0F6B1637000232A4A00933146294801F050
S214004EE017F9814688B1284A2849386804F084FAB8
S214004EF027494A46386804F07FFA484601F090F998
S214004F002449386804F078FAFEE7234B1D60D6E79C
S214004F10012B29464046637008BF2370FFF778F9D7
S214004F20199B1B790BBBA371E3712946E088FFF739
S214004F3059F80023194A00932946194801F0E8F861
S214004F4081460028BBD0104A1049386804F054FA4D
S214004F500F494A46386804F04FFA484601F060F9AF
S214004F601049386804F048FAFEE72389E380DCE756
S214004F70F28205002C1E00208F7305009D9105000F
S214004F80854A0000681E0020426005004660050055
S214004F904A600500B7910500241E0020454A00001F
S214004FA0E01E002059910500B81F00206182050010
S214004FB05E8205002DE9F041244C254DE37888B04B
S214004FC00E4690460F9F286863B3224A2249012B5B
S214004FD018BF0A46214904F00FFA3B79E2789A4254
S214004FE022D11F49286804F007FA9DF848309B072D
S214004FF012D501238DF81030E37842468DF8143030
S2140050000023CDE9013304AB00933146BDF83830B8
S21400501041F20700FFF7B4FE3046FFF77BFC08B00E
S214005020BDE8F0810F4AD5E7286863B1094A0A4906
S214005030012B18BF0A460C4904F0DEF93B79E370F1
S214005040FFF75EF8D1E7074AF5E700BF2C1E002001
S214005050B81F00205E820500F7910500FF9105004D
S2140050608F730500618205002A9205002DE9F04144
S2140050701F4D88B01F4C0F9F0E4690461E49AA78BB
S214005080206804F0B9F93A79AB78934227D11B49E6
S214005090206804F0B1F99DF848309B0712D5072325
S2140050A08DF81030AB7842468DF814300023CDE9E9
S2140050B0013304AB00933146BDF8383041F20400AA
S2140050C0FFF75EFE3046FFF7BDF828B907223146E7
S2140050D041F20400FFF7F6F808B0BDE8F081084991
S2140050E0206804F089F93B79AB70FFF709F8D2E73E
S2140050F02C1E0020B81F0020299605008F7305007F
S2140051005A9605002DE9F04F8FB09046DDE9192A32
S21400511013780E46802BBDF86C5003D0812B78D0C8
S214005120002402E0744994880B70744F009553462F
S21400513022467349386804F05FF9724BBB469A887A
S2140051409946A24276D17049386804F055F99DF820
S2140051507030554413F0020F674C36D022784FF467
S21400516098508DF81820B9F80410802A8BB21FBF0B
S2140051704FF6FE7103FB03134FF6FF71B3FBF1F31B
S2140051800CBFADF81C10ADF81C30802A8DF8282016
S21400519018BF4FF6FE72B9F8061002958BB21FBF05
S2140051A003FB03234FF6FF72B3FBF2F3ADF82C308C
S2140051B00AAB019306AB08BFADF82C10009342462D
S2140051C0BDF860303146FFF7DBFD227829463046D1
S2140051D0FFF7BCFC23783146802B0CBF812280224F
S2140051E04FF49850FFF76EF8314600224FF4805087
S2140051F0FFF768F83146022241F20200FFF762F834
S2140052008522314641F20330FFF75CF80FB0BDE867
S214005210F08F90883849C0EB00400B704EF0F2F9E2
S21400522041EC100B50F05AFB51EC100B4EF076FC94
S21400523084B27AE7224635493868059304F0DCF8EC
S214005240059BBAF1000F11D18DB9A9F80440A9F851
S21400525006400CB1A9F8084000212046FEF7C2FE21
S214005260FEF74EFF3046FFF731F970E71DB3002317
S214005270A9F80640264A00932946264800F048FF2B
S2140052800446A0B1244A2549DBF8000004F0B4F82F
S21400529023492246DBF8000004F0AEF8204600F072
S2140052A0BFFF2049DBF8000004F0A6F8FEE71E4B1F
S2140052B0C3F800A0D4E720465146DC80FEF792FEF5
S2140052C000952B46194A5146194800F021FF04461E
S2140052D00028C5D0104A1149386804F08DF81049E6
S2140052E02246386804F088F8204600F099FF1149F5
S2140052F0386804F081F8FEE778100020B81F002018
S214005300378F05002C1E00208F730500C969050025
S214005310054C0000401E0020426005004660050067
S2140053204A6005006F8F0500201E0020C94B000054
S214005330581F0020288D05002DE9F04389B0119CE8
S2140053400E4623781746822B03D0832B37D08A212C
S21400535011E0474DDFF82C81A2884649286804F002
S2140053604BF8A288B8F80A3093421ED14249286802
S21400537004F042F883219DF850309B0774D58329AA
S2140053808DF810105AD0842960D00023CDE901335F
S21400539004AB00933A46BDF84030314641F2013046
S2140053A0FFF7EEFC09B0BDE8F0833449286804F046
S2140053B023F8A388A8F80A30FEF7A2FEDAE7DFF89B
S2140053C0B090E388A2882E49D9F8000004F014F8BB
S2140053D02C4BA2889989C84691421D460AD1DB8982
S2140053E0E288934219D12449D9F8000004F004F861
S2140053F08421C0E72449D9F8000003F0FDFFA08807
S214005400AA88A881904204D91AB10021A880FEF784
S214005410E9FDE288EB8993420DD01C49D8F80000DC
S21400542003F0EAFFE088AA88E881824203D90021D7
S214005430A880FEF7D7FDFEF763FED9E7114A937AF8
S214005440D27A43EA0223ADF814309EE70D4B1A7B5E
S214005450597B42EA0122ADF814209A7BDB7B42EAB4
S2140054600323ADF8163090E73046FEF701FF99E7C4
S214005470B81F00204E9005008F730500096D0500CB
S214005480979005002C1E0020EC9005000C9105005E
S2140054902DE9F04F8FB0DDE919A59AF800900F4678
S2140054A0B9F1040F9046BDF86C6000F0BC80B9F10D
S2140054B0050F00F01281B9F1020F40F00C81DFF801
S2140054C0D892BAF90420A04C00962B469F49D9F8EA
S2140054D0000003F091FFFEF731FFBAF90420B4F99B
S2140054E01030CB4693423AD19949D9F8000003F0E0
S2140054F083FFBAF8043063827419FEF701FE9DF844
S21400550070309B071ED502218F4B8DF81810587CE3
S2140055101A7C8DF8281042EA0022ADF81C209A7CEE
S214005520DB7C394642EA0323ADF82C300AAB019304
S21400553006AB00930294BDF86030424641F202008A
S214005540FFF71EFC21463846FFF77AF880223946D8
S2140055504FF49850FEF7B6FE0FB0BDE8F08F7D49C9
S214005560D9F80000059403F047FFBAF90410059B2C
S214005570A1F5004080B25DB95EB9218261823146F4
S214005580A080E080FEF72EFD3846FEF79FFFB3E7CB
S2140055902EB302225982D8806F4B31461A700023F0
S2140055A06E4A00936E4800F0B3FD0446A0B16D4A03
S2140055B06D49DBF8000003F01FFF6C492246DBF85C
S2140055C0000003F019FF204600F02AFE6849DBF8C9
S2140055D0000003F011FFFEE7664B1D60D4E7618212
S2140055E02946E080FEF7FEFC00963346624A2946CE
S2140055F0624800F08DFD04460028C5D0594A5A4935
S214005600D9F8000003F0F8FE58492246D9F8000001
S21400561003F0F2FE204600F003FE5949D9F80000D8
S21400562003F0EAFEFEE7DFF87091BAF90420009670
S2140056302B465449D9F8000003F0DEFEBAF90440C0
S214005640514B002C1C80514B1D6002DC03D0504C8B
S21400565001E047F6FF743C4DD9F80000B5F910306C
S214005660A34205D13A4903F0C7FE6C82002444E702
S2140056702246384903F0C0FEA4F500439BB26C8274
S214005680EB8006B30422344B31461A700023334AAB
S2140056900093334800F03CFD0446C8B1314A324915
S2140056A0D9F8000003F0A8FE30492246D9F80000D9
S2140056B003F0A2FE204600F0B3FD2D49D9F8000005
S2140056C003F09AFEFEE7B5F91000201AFEF7A4FED6
S2140056D03846FEF7FBFE2F4C0FE72F4D2F49286864
S2140056E003F08AFEFEF704FD174CA080E080A0F5CC
S2140056F000402082608206B3174B314683F8009044
S2140057000023164A0093164800F002FD344606466B
S21400571000283FF4F2AE134A1349286803F06CFEE3
S21400572012493246286803F067FE304600F078FDDE
S2140057300F49286803F060FEFEE7FEF7FFFD3146DE
S214005740A088FEF74FFC91E72C1E0020DA93050098
S2140057508F7305001C94050079100020894700000F
S214005760901E002042600500466005004A60050065
S21400577038940500281E002051470000B81E00205F
S2140057808F93050077940500801F0020841F00205B
S2140057900080FFFF005A6202B81F0020B694050082
S2140057A073B5009313460A460021064605F03AF9FB
S2140057B00546A0B10B4C0C4A0C49206803F01CFEB1
S2140057C02A460B49206803F017FE284600F028FDFD
S2140057D0002332460749206803F00EFEFEE702B0BB
S2140057E070BD00BFB81F002042600500466005007F
S2140057F04A600500FE8B0500014B9888704700BF85
S2140058002C1E0020014B9880704700BF2C1E0020E5
S214005810014BD888704700BF2C1E0020014BD88053
S214005820704700BF2C1E0020014B5889704700BFF0
S2140058302C1E0020014B5881704700BF2C1E0020F4
S214005840014B1881704700BF2C1E0020014BD878F2
S214005850704700BF2C1E0020014B987805F0BAB8A0
S2140058602C1E0020F0B5142289B000218D484EF081
S21400587058FD002302AA0293142103AB44F204004D
S21400588021F050F8874C054618B9029A142A00F001
S21400589083801422002183484EF043FD4FF0FF33EF
S2140058A00022012123726372A373E373A388A2729A
S2140058B0E272217362730BB921716371E38813B9C5
S2140058C00122E371A271784E3068002D53D1029BFD
